:020000040800F2
:1000000008310020B9020008972F00086727000870
:10001000952F0008D9210008634D0008000000005A
:10002000000000000000000000000000F53C000897
:10003000F9250008000000005D360008413F000877
:10004000D3020008D3020008D3020008D30200083C
:10005000D3020008D3020008D3020008D30200082C
:10006000D3020008D3020008D3020008D30200081C
:10007000D3020008D3020008D3020008D30200080C
:10008000D3020008ED230008D3020008D3020008C1
:10009000D3020008D3020008D3020008D3020008EC
:1000A000D3020008D3020008D3020008D3020008DC
:1000B000294000083D410008D3020008D30200088F
:1000C000D3020008D3020008D3020008D3020008BC
:1000D000D3020008D3020008DD450008CD46000821
:1000E000D3020008D3020008D3020008D30200089C
:1000F000D3020008D3020008D3020008D30200088C
:10010000D3020008D3020008D3020008D30200087B
:100110001D450008D3020008D3020008D3020008DE
:10012000D3020008D3020008D3020008D30200085B
:1001300000F002F800F0B0F80AA090E8000C824449
:100140008344AAF10107DA4501D100F0A5F8AFF226
:10015000090EBAE80F0013F0010F18BFFB1A43F0A5
:10016000010318471CAE00003CAE00000A444FF0EB
:10017000000C10F8013B13F0070408BF10F8014B06
:100180001D1108BF10F8015B641E05D010F8016B4B
:10019000641E01F8016BF9D113F0080F1EBF10F8AF
:1001A000014BAD1C0C1B09D16D1E58BF01F801CBD2
:1001B000FAD505E014F8016B01F8016B6D1EF9D555
:1001C0009142D6D37047000000230024002500266A
:1001D000103A28BF78C1FBD8520728BF30C148BFAA
:1001E0000B6070476E2900F07683702900F0DD8681
:1001F00066290AF01A8165290AF0178167290AF031
:10020000148161290AF0138103681B0A28BF41F099
:100210008001692900F0C280642900F0BF8075293F
:1002200000F0BC806F2900F06A86782900F0A9866A
:10023000E92900F00586E42900F00286F52900F09E
:10024000FF85EF2900F06786F82900F0A88603688B
:10025000DB0928BF41F08001632900F086857329FE
:1002600000F08B85E32901F0C180F32901F0C680FD
:10027000002070471FB500F0A3FE040000200021FD
:1002800009F03CF8401C60600020002109F020F8D3
:10029000E0601FBD10B510BD01F04AF91146FFF72F
:1002A000E9FF05F0F3FF01F071F903B4FFF7F2FF86
:1002B00003BC01F0B5F90000094880470948004730
:1002C000FEE7FEE7FEE7FEE7FEE7FEE7FEE7FEE706
:1002D000FEE7FEE704480549054A064B7047000063
:1002E000513F000831010008082B00200831002090
:1002F000082D0020082D00201CB50C46064B7B4421
:1003000069460090204600F00EFD04460020694634
:1003100000F01CFD20461CBD4B0A00000FB41CB5AC
:10032000084B06AA7B4469460090059800F0FBFC48
:1003300004460020694600F009FD20461CBC5DF81B
:1003400014FB0000250A000070B50C460546012A82
:1003500005D02878800600D5EA69002302E0012351
:1003600005E05B1C934202D2E05C0028F9D1A86949
:10037000E618C01AA861286A18442862284600F0C6
:1003800018FA04E0D5E9012114F8010B9047B442B2
:10039000F8D3284600F023FA70BD00002DE9F041A3
:1003A0000646002410687529314616A510D000F0C5
:1003B00027FA002802DA404213A507E031688A07CD
:1003C00001D512A502E0490704D511A5012401E0D9
:1003D00000F01FFA00210A2206F1240709E0B0FB11
:1003E000F2FCB0FBF2F302FB1C00303078541846EC
:1003F000491C0028F3D123462A463046BDE8F04187
:1004000000F010BA000000002D0000002B000000DA
:10041000200000002DE9F05F894604464FF0000AF5
:10042000DFF874B1FB44C0F820A02046E16888479B
:10043000002874D0252806D0D4E901219047206AED
:10044000401C2062F1E700265F462046E1688847AD
:100450002028054607DB312D05D2781910F8200C2D
:1004600008B10643F1E7B00701D526F00406C4F849
:100470001CA00027C4F818A02A2D09D0284605F092
:1004800085F938B304EB8708303DC8F8185019E0F7
:1004900059F8041B204604EB87029161E168884704
:1004A000012F054618D1E069002820DA26F0200641
:1004B0001DE0D8F8180000EB800005EB4000303854
:1004C000C8F818002046E1688847054605F05EF93F
:1004D0000028EED1012F0AD02E2D08D12046E16848
:1004E00088477F1C0546022F46F02006C4DBA06922
:1004F000002803DA404246F00106A061F00701D06F
:1005000026F010066C2D0BD0682D09D04C2D39D05B
:100510006A2D35D0742D35D07A2D33D016E038E0E1
:10052000E1682F4620468847B842054609D16C2F1E
:1005300026D04FF48060E168064320468847054690
:1005400004E06C2F1AD04FF4807006430DB3A5F170
:100550004100192802D8203546F400664A4629464B
:10056000204626604E46FFF73DFE80B101280BD0A5
:10057000F61D26F0070000F1080956E74020E4E7E1
:100580008020D8E70020D6E706F104094DE7284689
:1005900052E7206ABDE8F09F52A9000030B5054639
:1005A0000B462A4613F8014B12F8010B08B1A04282
:1005B000F8D01CB1002802D06D1CF1E7284630BDF0
:1005C00010B5431C02E010F8011B71B18107FAD18C
:1005D0004FF0013202C88C1A8C4314EAC211F9D0D0
:1005E000C01A0A0603D0C01E10BDC01A10BD0A04EE
:1005F00001D0801E10BD0902FCD0401E10BD421E5D
:1006000012F8013F002BFBD111F8013B002B02F83F
:10061000013BF9D17047032A40F2308010F0030CFF
:1006200000F0158011F8013BBCF1020F624498BF45
:1006300011F801CB00F8013B38BF11F8013BA2F1E2
:10064000040298BF00F801CB38BF00F8013B11F05D
:10065000030300F02580083AC0F0088051F8043BFD
:10066000083A51F804CBA0E80810F5E7121D5CBF6A
:1006700051F8043B40F8043BAFF30080D20724BF9D
:1006800011F8013B11F801CB48BF11F8012B24BF31
:1006900000F8013B00F801CB48BF00F8012B704780
:1006A00010B5203AC0F00B80B1E81850203AA0E80D
:1006B0001850B1E81850A0E81850BFF4F5AF5FEA41
:1006C000027C24BFB1E81850A0E8185044BF18C9F4
:1006D00018C0BDE810405FEA827C24BF51F8043B9B
:1006E00040F8043B08BF7047D20728BF31F8023BEF
:1006F00048BF11F8012B28BF20F8023B48BF00F883
:10070000012B70474FF000020429C0F0128010F056
:10071000030C00F01B80CCF1040CBCF1020F18BFDD
:1007200000F8012BA8BF20F8022BA1EB0C0100F070
:100730000DB85FEAC17C24BF00F8012B00F8012B43
:1007400048BF00F8012B70474FF0000200B5134678
:1007500094469646203922BFA0E80C50A0E80C50E1
:10076000B1F12001BFF4F7AF090728BFA0E80C5092
:1007700048BF0CC05DF804EB890028BF40F8042B8B
:1007800008BF704748BF20F8022B11F0804F18BFF8
:1007900000F8012B704770477047704710B500F0A4
:1007A00013FC006810BD10B5044600F00DFC046099
:1007B00010BD70B5044685690068C10601D53026B4
:1007C00000E02026C00707D070BDD4E901213046E3
:1007D0009047206A401C20626D1EF6D570BD70B532
:1007E000044685690078C00707D170BDD4E90121AE
:1007F00020209047206A401C20626D1EF6D570BDF7
:1008000009684A0501D540B27047C905FCD500B258
:10081000704709684A0501D5C0B27047C905FCD5C3
:1008200080B270472DE9F0470D469946924604463E
:1008300000F124080168880604D5E06921F0100160
:10084000216000E00120A84201DD471B00E00027F5
:10085000A1697A1902EB0900081AA0612078C00684
:1008600002D42046FFF7A5FF002608E0D4E90121C5
:100870001AF806009047206A401C761C20624E45FC
:10088000F4DB2078C0060AD52046FFF792FF06E089
:10089000D4E9012130209047206A401C2062381E94
:1008A000A7F10107F4DC07E0D4E9012118F80500FD
:1008B0009047206A401C2062281EA5F10105F3DC48
:1008C0002046FFF78CFF2078000602D50220BDE805
:1008D000F0870120FBE711680268006A530501D523
:1008E00008700AE0D30501D5088006E0130603D599
:1008F000C217C1E9000200E008600120704770479C
:100900002DE9FF4F0C461E464FF0FF378BB0D2E962
:100910000001DDF860800A908A46C1F30A5505B9E6
:100920003D46002108464FF00000BAF1000F00F4E8
:10093000400005DA00EB80004FF4400101EA50006E
:100940004FEA9059B9F1010F00DDB9460A9850EA13
:100950004A000ED044F61050A5F2FF3545432F143F
:10096000B8F1000F1ED07542291E1EDDC9F100022C
:100970001CE0B8F1010F4FF0000001D0302103E07E
:10098000F24305E02154401CB042FBDB304600221C
:10099000002121540B99C1F80880C1E900200FB053
:1009A000BDE8F08FBD1B6D1CDEE74A4600DA6942E8
:1009B00006A800F027FD06AB93E8070003AB83E829
:1009C000070050460A9900F032FE8DE80700A0F5B6
:1009D00000501F3800900398002D0ADD42F21F01DD
:1009E0004A460844002303A90390684601F09BF897
:1009F00009E0A0F500504A461F38002303A90390E0
:100A0000684601F0A5F88DE807000004000C03D04B
:100A10004FF0FF30410800E01046B8F1000F03D05E
:100A20000022009215461EE0751E05D400F0D0FA93
:100A3000303262556D1EF9D5B3460122084302D00B
:100A400000227F1C04E02078302801D100227F1E84
:100A5000002A099784D01DE0112D07DA00F0B8FABA
:100A6000303262556D1C50EA0102F5D1084302D0C4
:100A70000098C8B10EE00021681E05E0235C625CAE
:100A800063542254401E491C8142F7DBAB46A81B2D
:100A9000401E0990002004F80B000B98099AC0F83A
:100AA0000880C0E9002B7AE711264FF0000857E7CD
:100AB0002DE9F04F88460446D21D22F0070191B07F
:100AC000D1E90001CDE90A0104F0D6FD02460B98F8
:100AD000C00F01D02D2007E02068810701D52B2011
:100AE00002E0202101EAC000032A099001D0072A70
:100AF00005DB03464146204600F02EFC0BE1207842
:100B0000800601D5E06900E00620B8F1650F814656
:100B100006D0B8F1660F18D0B8F1670F70D131E088
:100B20000020B9F1110F009001DB112301E009F160
:100B300001030AAA01A90CA8FFF7E2FEDDE90C7087
:100B4000002609F10105834647E001204B4600904D
:100B50004FF000470AAA01A90CA8FFF7D1FEDDE972
:100B60000DB00C995D46002610B909F101000D1871
:100B7000B9EB050003D4C0F1FF3609F10105A5EB7F
:100B800009002BE0B9F1010F01DA4FF00109002053
:100B9000B9F1110F0090484601DD112300E0034632
:100BA0000AAA01A90CA8FFF7ABFEDDE90C704D46BF
:100BB00000268346207800070AD4AB4500DA5D465C
:100BC00001A8012D04DD411911F8011C302907D0BD
:100BD0004F4502DA17F1040F04DA012082460FE0D4
:100BE0006D1EEEE7002F02DCED1B3E4403E0781C97
:100BF000A84200DD7D1CB81B00F1010A4FF0004740
:100C00002078000703D4AA4501DB4FF0FF3A00210A
:100C1000B7F1004F0DF143088DF8431024D00220A6
:100C20002B23002F01DA7F422D230A21021EA0F17F
:100C3000010000DC5FB197FBF1FC97FBF1F201FBD7
:100C40001C7C17460CF1300C08F801CDEEE7A8F13A
:100C5000010003702188090501D5452100E06521C7
:100C6000A0F1010800F8011C09980FA9A1EB0807E1
:100C7000FF1D00B10120411901EBEA70A169384460
:100C8000081A401EA0612078C00602D42046FFF753
:100C900090FD099828B1D4E901219047206A401CB1
:100CA00020622078C00622D52046FFF782FD1EE094
:100CB000002E04DBB34502DD01A8805D00E030209A
:100CC000D4E901219047206A401C2062761CAAF1D9
:100CD00001005FEA000A0AD100F072F9C0680168F9
:100CE000405CD4E901219047206A401C2062281E04
:100CF000A5F10105DCDC07E0D4E9012118F8010BBE
:100D00009047206A401C2062381EA7F10107F3DCDF
:100D10002046FFF764FD032011B041E601694A1C3B
:100D200002610878704700B58FB0CDE9013100212C
:100D3000059105497944CDE9031011466846FFF74E
:100D400069FB0FB000BD0000E5FFFFFF0A6802F875
:100D5000010B0A60704710B5436913B1AFF300800F
:100D600001E0FFF7F1FA012010BD127800F1240133
:100D70000A7000224A700122EDE711684FF0FF323D
:100D8000E9E700002DE9FF5F15468A460446DFF8D3
:100D9000AC80F8440027D8E900103E46CDE90010A9
:100DA00010E03AF816106A4602A800F09DFB411CBC
:100DB00007D02178890603D5E269391891420DD808
:100DC0000744761C2078800602D5E069B84205DD2C
:100DD000AE42E6DB3AF816000028E2D1A069C01B5B
:100DE000A0612046FFF7E5FCD8E90010CDE900102E
:100DF000002017E03AF818106A4602A800F074FBC9
:100E0000B0F1FF3F81460BD000250DF1080B05E046
:100E1000D4E901211BF8050090476D1C4D45F7D31F
:100E200008F10100B0428046E4DB206A38442062C9
:100E30002046FFF7D4FCBDE8FF9F000082A0000021
:100E40002DE9F0418046D21D22F007020025D2E9AB
:100E50000002F52915A614D0011E72F1000106DA70
:100E60000023D0EB030063EB020211A608E0D8F8E0
:100E700000108B0701D50FA602E0490701D50EA689
:100E800001251146002408F1240704E000F0A0F831
:100E900030323A55641C50EA0102F7D12B463246F3
:100EA00021464046BDE8F041FFF7BCBC0000000011
:100EB0002D0000002B0000002000000030B40021B5
:100EC00000F1240408E002F00705D208303542EAB8
:100ED0004372DB086554491C52EA0305F3D10468E8
:100EE000002310A2250707D5A40600D421B1C469A8
:100EF00001230DA2641EC46130BCFFF793BC10B582
:100F0000044621461068FFF784FC02462046BDE8EF
:100F100010400023D2E7D21D22F00701D1E90023BF
:100F2000CCE700000000000030000000F0B40D46E7
:100F30000188090502D5214C7C4402E01F4C7C4409
:100F40000E34002100F1240608E002F00F07120918
:100F5000E75D42EA03721B097754491C52EA030712
:100F6000F3D102780023120704D5702D06D009B101
:100F7000022311342246F0BCFFF754BC0123103485
:100F8000F8E770B504460D4621461068FFF741FCAE
:100F9000024629462046BDE870400023C6E7D21D20
:100FA00022F00703D3E90023C0E70368126843F087
:100FB000200303600823C3610023B7E7E49E000019
:100FC00000487047C42A002000487047A42A002027
:100FD00030B5B0F10A024FEA900E71F100034EEA0B
:100FE000817EB0EB0E0061EB91014FEA101E4EEADC
:100FF000017E10EB0E0041EB11114FEA102E4EEA6C
:10100000016E10EB0E0041EB11214FEA104E4EEA3B
:10101000014E10EB0E0041EB1141401841F100016F
:101020004FEAD00040EA41704FEAD10110EB800551
:101030004FEA810444EA907444EB01046D1944EBD7
:101040000404521BA3414FF0000348BF0A3200D5ED
:1010500030BD401C41F1000130BD00002DE9F04FD2
:1010600004460D46D21D22F0070089B0D0E9009752
:101070004846394604F000FB0246F80F01D02D2304
:1010800007E02068810701D52B2302E0202101EA37
:10109000C0038DF820300BB1012000E00020032AAE
:1010A000824601D0072A04DB2946204600F054F985
:1010B0003FE12078800601D40D2500E0E569C7F303
:1010C0000A560D2D49DA00214FEA175B08464FF00A
:1010D0000000002F00F4400007DA00EB80004FF41E
:1010E000400100EBD07001EA60008115012901DDAB
:1010F0004FF0FF3100224FEA850CBCF1180F06D3E8
:101100001346ACF118004FF08052C24003E04FF498
:10111000801323FA0CF30CF10C0CBCF1200F04D358
:10112000ACF1200C09FA0CF001E007FA0CF00029F0
:101130004FF0004801DD18B90FE00ED140450CD347
:1011400019EB02095F4121B9404502D19F4329EAC9
:101150000209BBEB175F00D0761C2088000502D582
:101160007B48784402E07A487844193808AA30234A
:1011700002F80A30037C0AF10101002E0AF1020A8A
:1011800053546A4602DC4FF0300101E04FF0310168
:101190004FF001088DF8001002D0A6F2FF3603E0F0
:1011A00059EA470100D06B4E002D02DC2178090777
:1011B00004D54FF002082E218DF80110C4460021FD
:1011C0000BE0C7F303433F01C35C491C6D1E02F8EB
:1011D0000830052908F1010801DA002DF1DC0021B1
:1011E0000CE000EB1973491C1B786D1E082902F8EE
:1011F00008304FEA091908F1010801DA002DF0DC86
:1012000021688B0602D516E0A8F10108E04505DD4E
:1012100002EB080313F8013C302BF5D0B8F1000FB6
:1012200009DD02EB080313F8013C2E2B03D109075B
:1012300001D4A8F10108002D05DD3E2102F80810B7
:101240006D1E08F10108407C002E02F8080008F12C
:10125000010804DA2D20764202F8080002E02B2073
:1012600002F808000A214FF47A70864208F101085A
:101270000BDB96FBF0F3303302F8083096FBF0F30B
:1012800008F1010800FB136601E0642E0CDB64200A
:1012900096FBF0F3303302F8083096FBF0F308F1D8
:1012A000010800FB136601E00A2E06DB96FBF1F055
:1012B000303002F8080008F1010896FBF1F001FB5C
:1012C0001060303002F80800A16908F1010808EB4D
:1012D000050202EB0A00081AA0612078C00602D4B9
:1012E0002046FFF766FA216A08AE01EB0A00206289
:1012F00004E0D4E9012116F8010B9047BAF1010A84
:10130000F7D22078C00602D52046FFF752FA6E4683
:1013100009E016F8010B3E280FD0D4E901219047CF
:10132000206A401C2062B8F10108F2D22046FFF783
:1013300056FA09B00320BDE8F08F206A28442062E5
:1013400003E0D4E90121302090476D1EEBD3F8E78C
:10135000FD9C000002FCFFFF2DE9F0411F46044602
:1013600003260168072A01F4006004DB08B116A512
:1013700005E016A503E008B115A500E015A521F0CC
:1013800010002060A069C01EA0610FB1401EA061C6
:101390002046FFF70EFA4FB1D4E9012138469047B5
:1013A000206A401C2062C01C206206E0206AFAE726
:1013B000D4E9012115F8010B9047761EF8D220469A
:1013C000FFF70DFABDE8F0814E414E006E616E00F0
:1013D000494E4600696E660010B5436913B1AFF31C
:1013E000008001E0FFF7CEFC012010BD128800F163
:1013F000240182840022C2840122EDE711684FF0AB
:10140000FF32E9E72DE9F047814616468AB03548B4
:1014100078440DC88DE80D0032487844801C03AC38
:101420000DC884E80D0041F69B300844372190FB3D
:10143000F1F290FBF1F5A5F1800501FB12041B3CD4
:1014400002D56442012000E00020DFF898A0804629
:101450000027FA44AAF1BE0A0EE0E0070AD032469D
:10146000684607EB470101230AEB810100F070FB9E
:101470008DE8070064107F1C002CEED1194F7F44CB
:10148000AE3F19E0E80715D007EB04100DF1180A7C
:1014900090E80E008AE80E00C068F04201D1981969
:1014A00008903246012306A903A800F051FB03ABC4
:1014B00083E807006D10641C002DE3D14FF0010399
:1014C00032466946B8F1000F03A802D000F02BFBAA
:1014D00001E000F03DFBC9E90001C9F808200AB0AD
:1014E000BDE8F087E09A000070B516460C46054648
:1014F00000F044F8036893F80101012806D0FF2C9E
:101500000FD8185D68B101202C7070BDD3F80701A9
:101510003246214603F2071303442846BDE87040D3
:1015200018474FF0FF3070BD00487047A42A0020D4
:101530007546FFF7F9FFAE4605006946534620F0B1
:101540000700854618B020B5FEF7C4FEBDE8204070
:101550004FF000064FF000074FF000084FF0000B6F
:1015600021F00701AC46ACE8C009ACE8C009ACE822
:10157000C009ACE8C0098D467047000010B5FFF700
:101580001FFD001D10BD00BF757D000010B5044695
:10159000AFF300802046BDE81040FEF786BE000095
:1015A0004FF0013C50F8042B51F8043B9A4221D1F2
:1015B000A2EB0C03934313EACC1317D150F8042B7E
:1015C00051F8043B9A4215D1A2EB0C03934313EA62
:1015D000CC130BD150F8042B51F8043B9A4209D19B
:1015E000A2EB0C03934313EACC13DBD04FF00000C3
:1015F000704700BFD01A01BAB1FA81F101F01801A9
:1016000022FA01F0CB40C1F12001DBB2C0B2C01A16
:101610002CFA01F3D11A914311EAC311E6D17047B4
:1016200001491820ABBEFEE72600020070475FEAC2
:10163000400C08BF91F0000F4FEA8C234FEAC12203
:1016400043EA51514FEA1C5018BF00F5F0404FEAF1
:10165000300018BF41F000415FEA6C5C00F0298067
:10166000BCF1FF3F08BF40F080407047130C06BF3D
:1016700012044FF0100C4FF0000C130E04BF1202B6
:101680000CF1080C130F04BF12010CF1040C930FA2
:1016900004BF92000CF1020CD30F04BF52000CF1F6
:1016A000010C11464FF00002A0F11F00A0EB0C004E
:1016B000704711F0004F08BF704731F000413FF410
:1016C000D5AF0B0C06BF09044FF0100C4FF0000C07
:1016D0000B0E04BF09020CF1080C0B0F04BF09012B
:1016E0000CF1040C8B0F04BF89000CF1020CCB0F22
:1016F00004BF49000CF1010CCCF12003A0EB0C005D
:1017000022FA03F302FA0CF241EA030100F10100AC
:10171000704720F07F4C80EA030023F07F47ACEB5A
:10172000070303F57C5300F0004003F1FF032DE9AC
:1017300080494FEA154B09B44FEA144325EA0B4E92
:1017400024EA03480FF2042606EB132749083E78E3
:101750005FEA320203FB0667C7F5000707FB06F6E0
:101760004FEA54374FEAD64606F1020607FB066CED
:10177000CCF1005C4FEA1C472CEA074C07FB06F44F
:101780000CFB06F504EB15464FEA961634BF002015
:101790004FF000404FEAD13706FB07FC4FEA1C4CE4
:1017A0000CFB0BF7D21B03FB0CF761EB07010CFBE7
:1017B0000EF7B0EB074072EB17420CFB08F734BF93
:1017C000A2EB0742B2EB074261EB17414FEA0C4430
:1017D0004FEA910706FB07FC4FEA1C4C0CFB0BF78A
:1017E000B0EBC74072EB573203FB0CF734BFA2EBF0
:1017F000C742B2EBC74261EB57310CFB0EF7B0EBBF
:10180000C70072EB57720CFB08F734BFA2EBC7029C
:10181000B2EBC70261EB5771039F4FEA816141EA66
:10182000921104EBCC044FEAD1374FEA826206FBF7
:1018300007FC42EA90124FEA80604FEA1C4C0CFB16
:101840000BF7D21B03FB0CF761EB07010CFB0EF748
:10185000B0EB074072EB17420CFB08F734BFA2EB6A
:101860000742B2EB074261EB17414FEA8C554FEA52
:10187000910704EB9C2406FB07FC4FEA1C4C0CFB75
:101880000BF7B0EBC74072EB573203FB0CF734BFDA
:10189000A2EBC742B2EBC74261EB57310CFB0EF72C
:1018A000B0EBC70072EB57720CFB08F734BFA2EB2A
:1018B000C702B2EBC70261EB577115EB4C254FEA3B
:1018C000816141EA92114FEA82624FEAD13742EADE
:1018D000901206FB07FC44F100044FEA80604FEAD7
:1018E0001C4C0CFB0BF7D21B03FB0CF761EB070145
:1018F0000CFB0EF7B0EB074072EB17420CFB08F73E
:1019000034BFA2EB0742B2EB074261EB174115EB84
:101910001C154FEA813141EA92414FEA823242EA94
:1019200090424FEA80304FEA0C7644F1000448EAD6
:1019300003434EEA0B484FF0000EB2EB080C71EB7C
:10194000030724BF624639464EEB0E0E4FF0000BE4
:101950000018524149414BEB0B0BB2EB080C71EBF9
:1019600003077BF1000B24BF624639464EEB0E0E97
:101970004FF0000B0018524149414BEB0B0BB2EBFF
:10198000080C71EB03077BF1000B24BF624639465C
:101990004EEB0E0E51EA020718BF46F0010616EB99
:1019A0000E7655F1000254F1000103D5BDE889011E
:1019B000BDE80088BDE88901BDE80048B61952417C
:1019C00041EB0101A3F10103704780807F7E7D7CA4
:1019D0007B7A7978777676757473727171706F6EC1
:1019E0006E6D6C6C6B6A6A6968686766666564646C
:1019F000636362616160605F5F5E5E5D5D5C5C5BF6
:101A00005B5A5A5959585857575656555555545464
:101A1000535352525251515050504F4F4F4E4E4DC2
:101A20004D4D4C4C4C4B4B4B4A4A4A49494948480E
:101A3000484747474746464645454544444444434E
:101A400043434342424242414141002B9C4630D4F1
:101A500077002BD01CB54FEA370703B44FF01000C6
:101A60004FF01001BAF1000F06D0BCF1000FDCBF3F
:101A700040F0080040F008014FF000000FBCBDE846
:101A800010400BF1010BBBF1010F08BF5FEA170714
:101A900022BF12F1010211F101014FF0004143F1A7
:101AA000000300F0004043EA00007047F9D35708F4
:101AB000D0E746EA064613F1400F4FEA16461FDD0F
:101AC00013F1200FDFBF16430A46002120335B428B
:101AD000BED0C3F1200746EA064602FA07F74FEAEE
:101AE000164646EA0706C3F1200722FA03F201FA76
:101AF00007F721FA03F14FF0000342EA0702A7E7D4
:101B000046EA020646EA06464FEA164646EA010655
:101B1000BCBF46EA0646360C4FF000034FF0000209
:101B20004FF0000194E72DE9804C9A46934670B43B
:101B300091E8380007C831EA400C48BF34EA430C4A
:101B400003D5FFF7E6FDFFF780FFF0BCBDE8008C92
:101B50002DE9804C9A46934670B491E8380007C846
:101B600010F0804F08BF13F0804F03D100F005F84C
:101B7000FFF76BFFF0BCBDE8008C20F07F4780EAE8
:101B8000030023F07F4C07EB0C03A3F57C5300F01C
:101B90000040A3F1FE0392F0000F00F0B38095F037
:101BA000000F00F077802DE901494FEA11404FEA1C
:101BB000144621EA004800FB06FC24EA064708FB1D
:101BC00006F607FB08F800FB07F718EB06484CEB96
:101BD000164C4FEA124B18EB07484FEA15464CEBF0
:101BE000174022EA0B4E0BFB06FC25EA06470EFBCC
:101BF00006F607FB0EFE0BFB07F71EEB064E4CEB43
:101C0000164C4FF000061EEB074E4CEB174B18EB33
:101C10000B0840F1000018EB0E0B58EB000840F1E8
:101C200000008F1A4FF000013CBFC943661B14BF70
:101C3000B5EB040C00213CBFC943F61B4FEA174427
:101C40004EEA8E0E27EA04454FEA1C4704FB076262
:101C50002CEA074C05FB07F70CFB05F604FB0CFC14
:101C600016EB074642EB174216EB0C4642EB1C42C2
:101C70001BEB060658EB0202414146EA9E0601D5DF
:101C8000BDE80189B619524141EB0101A3F10103FD
:101C9000BDE801894FEA14454FEA114724EA054699
:101CA00021EA074C05FB07F406FB07F70CFB06F1DE
:101CB00005FB0CFC11EB074144EB17444FEA1247BC
:101CC00011EB0C4144EB1C4422EA074C05FB07F2E4
:101CD00006FB07F70CFB06F605FB0CFC16EB0746AC
:101CE00042EB174216EB0C4642EB1C456A1854F1C6
:101CF000000148BF7047B619524141EB0101A3F101
:101D00000103704795F0000F37D04FEA11424FEAB8
:101D1000144721EA024624EA074C02FB07F106FBBE
:101D200007F70CFB06F402FB0CFC14EB074441EB39
:101D300017414FEA154714EB0C4441EB1C4125EACF
:101D4000074C02FB07F506FB07F70CFB06F602FB48
:101D50000CFC16EB074645EB174516EB0C4645EB1E
:101D60001C42121951F1000148BF7047B619524187
:101D700041EB0101A3F1010370474FEA14454FEA1B
:101D8000114724EA054621EA074C05FB07F106FB4B
:101D900007F70CFB06F24FF0000605FB0CFC12EBFC
:101DA000074241EB174112EB0C4251EB1C4148BF7B
:101DB0007047921841EB0101A3F101037047000045
:101DC00000B587B00121042001F09CFC00200690A2
:101DD0008DF81B000220ADF8180003208DF81A00C2
:101DE00006A9244800F009FC0121480201F08AFC00
:101DF000142101A8FEF7A8FC4FF4004001F046FCB6
:101E00000020019001208DF8090000208DF80800C5
:101E10004FF4602003900020049001208DF81400FE
:101E200001A9154800F054F8072301221146124871
:101E300000F076F80121104800F02BF801210E483F
:101E400000F01CF80C4800F0C7F800BF0A4800F08A
:101E500035F80128FAD0084800F0CEF800BF06484F
:101E600000F022F80128FAD00121034800F0B9F867
:101E700007B000BD000801400024014021B1826884
:101E800042F00102826003E0826822F00102826077
:101E9000704721B1826842F48072826003E08268F8
:101EA00022F4807282607047014600208A6802F046
:101EB00004020AB1012000E0002070470146002022
:101EC0008A6802F008020AB1012000E00020704791
:101ED00030B502460020002350680F4C20400D7999
:101EE0000C6844EA05242043506090680B4C204065
:101EF000D1E902542C434D7944EA450420439060D3
:101F0000D06A20F470000C7C641EE4B2234340EAE3
:101F10000350D06230BD0000FFFEF0FFFDF7F1FF7F
:101F2000F0B504460D4600200021092D11DDE068C2
:101F3000A5F10A0606EB4607072606FA07F18843CD
:101F4000A5F10A0606EB460603FA06F10843E0602F
:101F50000CE0206905EB4507072606FA07F18843E0
:101F600005EB450603FA06F108432061072A0FDA5C
:101F7000606B561E06EB86071F2606FA07F188439C
:101F8000561E06EB860605FA06F10843606322E05A
:101F90000D2A0FDA206BD61F06EB86071F2606FADE
:101FA00007F18843D61F06EB860605FA06F10843BB
:101FB000206310E0E06AA2F10D0606EB86071F26FB
:101FC00006FA07F18843A2F10D0606EB860605FA2C
:101FD00006F10843E062F0BD816841F008018160CC
:101FE000704721B1826842F4A002826003E08268F7
:101FF00022F4A00282607047816841F00401816090
:102000007047000010B5A2B080212D48FEF77AFB82
:102010002CA22EA12A48FEF781F92948FEF7D0FA12
:102020003449086080213448FEF76CFB33A325A2B5
:1020300035A13148FEF772F92F48FEF7C1FA34494D
:102040000860802102A8FEF77FFB2CA01DA31DA223
:1020500030A1009002A8FEF761F902A8FEF7B0FADD
:102060000446202034A33D4A2146009002A805F0F2
:102070005DFB3A48FEF7A4FA3949086080213948E7
:10208000FEF740FB1DA238A13648FEF747F940F2A3
:102090005B703F4908600846324902683DA005F080
:1020A000C3FA074940A005F0BFFA134942A005F062
:1020B000BBFA2A4944A005F0B7FA22B010BD0000CF
:1020C00078270020444854313100000025737C7388
:1020D00065637572656D6F64653D332C7369676EFA
:1020E0006D6574686F643D686D6163736861317CB0
:1020F000000000007C000020F8270020696A61725F
:102100005553423430454C0025732625730000009A
:1021100080000020636C69656E7449642573646592
:10212000766963654E616D65257370726F64756362
:10213000744B657925730000646639656330383403
:102140006130383435633266363238373363613361
:1021500033393061363064360000000078280020C2
:1021600084000020F828002025732E696F742D61EB
:10217000732D6D7174742E636E2D7368616E676854
:1021800061692E616C6979756E63732E636F6D0082
:1021900088000020B7FE20CEF120C6F7A3BA257331
:1021A0003A25640D0A000000BFCDBBA7B6CB494459
:1021B000A3BA25730D0A0000D3C320BBA720C3FB1D
:1021C000A3BA25730D0A0000C3DC20202020C2EB37
:1021D000A3BA25730D0A00007047000070B50546CC
:1021E0000C462246294615480068801CFEF713FA63
:1021F0002046E11704EB1161090A104A12681170B8
:10220000E11704EB11610912A4EB01210B4A1268DA
:102210005170002109480268A01C11540748006849
:1022200000F5967005490860084600680449096889
:10223000884202D103480149086070BD7000002047
:1022400078000020181E002070B505460C46284670
:1022500001F0E2FA064626EA0401284603F0F4F902
:1022600070BD000010B5002400F05EFA04E0601CB0
:10227000C4B2012003F0E0FF20210F4800F048FA2B
:1022800008B9642CF3DB642C01DB002010BD0024B2
:1022900004E0601CC4B2012003F0CEFF20210648F8
:1022A00000F036FA08B1642CF3DB642C01DB00206B
:1022B000ECE70120EAE700000010014010B5012121
:1022C000102001F01FFA2020064908801020C87055
:1022D00003208870044800F090F900F06FF8FFF7D1
:1022E000C1FF10BD9C0000200010014010B500246B
:1022F00004E0601CC4B2012003F09EFF20211048BE
:1023000000F006FA08B1642CF3DB002404E0601C42
:10231000C4B2012003F090FF2021094800F0F8F931
:1023200008B9642CF3DB1E2003F086FF202104484B
:1023300000F0EEF908B1012010BD0020FCE700001C
:102340000010014070B50024002506E06006040E70
:10235000FFF7CCFF0443681CC5B2082DF6DB20460E
:1023600070BD7CB505460E4600F028F8FFF77AFFF1
:1023700001281FD1002405E0FFF7E4FF0DF8040059
:10238000601CC4B2052CF7DB9DF800009DF801101D
:1023900008449DF8021008449DF8031008449DF875
:1023A0000410884208D19DF8000030709DF80200AA
:1023B000287001E000207CBD0120FCE710B500F092
:1023C000BFF92021084800F0ACF9142003F014FFF5
:1023D0002021054800F0C0F91E2003F02DFF202128
:1023E000014800F09EF910BD0010014010B54FF0FB
:1023F000007000F05FF850B14FF0007000F00CF882
:102400000021034800F016F800200249087010BDB2
:10241000800002405400002000F0805111B10349B7
:10242000086001E00249486070470000040402406F
:102430000000024021B1026842F00102026004E0A3
:1024400002684FF6FE731A400260704700B58BB009
:102450002C216846FEF778F90121084601F022F99F
:102460000F4800900020029001200390002004906B
:1024700080200590C00007908010069020200890D2
:102480000002099000200A9006480190694606481B
:1024900000F02FF801210448FFF7CCFF0BB000BD7E
:1024A0004C240140DC00002008000240014648683E
:1024B00080B2704701460020002201F0805313B122
:1024C000054B1A6801E0054B1A6802EA01030BB1DB
:1024D000012000E00020704700040240000002409C
:1024E0001AB103680B43036002E003688B43036087
:1024F000704710B50022026847F6F0739A430C6AE1
:102500008B6823430C6923434C6923438C69234321
:10251000CC6923434C6A23438C6A23431A430260E9
:10252000CB6843600B6883604B68C36010BD0000DC
:1025300010B5C2B01448006814490968401A02284E
:1025400020D31148006811490860114803781148E8
:1025500002781148017811A005F066F80C4800785F
:1025600000900D4803780B480278154902A8FDF742
:10257000D5FE02A8FEF724F80446224602A911A0BF
:1025800000F046FC42B010BD440000204000002096
:10259000260000202500002024000020CEC2B6C85E
:1025A000A3BA25642020CAAAB6C8A3BA25642020ED
:1025B000D1CCCEEDC5A8B6C8A3BA25640D0A0000DB
:1025C0000CAF00082F7379732F696A6172555342FB
:1025D0003430454C2F44485431312F7468696E674C
:1025E0002F6576656E742F70726F70657274792FB7
:1025F000706F73740000000070472DE9F0410246CF
:1026000000250026002000230024002791F803C0A5
:102610000CF00F0591F803C00CF0100CBCF1000F8A
:1026200003D091F802C04CEA050591F800C0BCF156
:10263000000F31D0146800202BE04FF0010C0CFA91
:1026400000F3B1F800C00CEA03069E4220D18300DB
:102650004FF00F0C0CFA03F7BC4305FA03FC4CEAED
:10266000040491F803C0BCF1280F06D14FF0010C0F
:102670000CFA00FCC2F814C00AE091F803C0BCF1E7
:10268000480F05D14FF0010C0CFA00FCC2F810C045
:10269000401C0828D1D31460B1F800C0BCF1FF0F72
:1026A00034DD546800202EE000F1080C4FF00108E2
:1026B00008FA0CF3B1F800C00CEA03069E4221D1DF
:1026C00083004FF00F0C0CFA03F7BC4305FA03FC30
:1026D0004CEA040491F803C0BCF1280F05D100F1C5
:1026E000080C08FA0CF8C2F8148091F803C0BCF189
:1026F000480F07D100F1080C4FF0010808FA0CF858
:10270000C2F81080401C0828CED35460BDE8F08188
:102710000246002093680B400BB1012000E000202E
:10272000704741617047000010B504200249C8702D
:102730000248FFF762FF10BD9C000020001001401E
:1027400010B510200249C8700248FFF756FF10BDAF
:102750009C00002000100140016170470AB1016136
:1027600000E041617047704708B50121442000F046
:10277000C9FF1820ADF8000048208DF80300694615
:102780000648FFF73AFF0120ADF8000028208DF839
:10279000030069460248FFF730FF08BD00180140FA
:1027A0000008014010B5044614B101202349087007
:1027B0002248007858B310212148FFF7A9FF50B1F3
:1027C00008211F48FFF7A4FF28B101211D48FFF78A
:1027D0009FFF01281BD10A2003F00EFD002017499E
:1027E000087010211648FFF793FF08B9012010BDAB
:1027F00008211348FFF78CFF08B90220F7E70121F1
:102800001048FFF785FF012815D10320EFE71021BD
:102810000B48FFF77DFF01280DD108210848FFF77D
:1028200077FF012807D101210648FFF771FF10B992
:102830000120024908700020D9E70000D1000020E3
:10284000001801400008014008B50121482000F0AF
:1028500059FF2020ADF8000010208DF80300032060
:102860008DF8020069460948FFF7C7FE2021074896
:10287000FFF772FF2020ADF8000069460448FFF71B
:10288000BCFE20210248FFF767FF08BD000C014095
:102890000018014010B50446412C24D108210846F7
:1028A000FFF7D2FC3D21112002F0CEFE8621172039
:1028B00002F0CAFE7F21262002F0C6FE1E212D2036
:1028C00002F0C2FE00212C2002F0BEFE8D212A2043
:1028D00002F0BAFE3E212B2002F0B6FE022003F0E9
:1028E000ABFC00F072FD10BD2DE9FC5F00F03EF87E
:1028F00001901848019907F023FD0546019907F05A
:102900005DFB0446144907F04FFC834613480068FA
:1029100040F6B831884202D2584600F04DF81048CF
:102920000168584607F04AFB009007F0B9FA804664
:102930004FF080420B4B04F065F906464FF08042A1
:10294000094B06F09DFF044606F0EEFC8246504619
:10295000BDE8FC9F333353400000A0400402002038
:10296000D4000020894103C0332F83402DE9F04774
:102970000B49088807F004FC82460A4907F014FC5A
:10298000814607F08DFA07460022074B06F0BAFD94
:10299000054606F0C9FC04462046BDE8F087000065
:1029A000DC0000203333534000FEAF4010B5FFF78A
:1029B00007FAFFF74BFD10BD2DE9F04782464FF0B7
:1029C00080420B4B10460B4904F01CF906460F469B
:1029D000504607F065FA804632463B4606F092FDC7
:1029E000044606F0A1FC04490860BDE8F087000039
:1029F000D096DABF24AEA03FD400002010B5164810
:102A000016490860084600681549086015481649C7
:102A100008601648164908600846006815490860AD
:102A200015481649086016481649086008460068A7
:102A30001549086015481649086000F04BF8002158
:102A400014A000F05BFA00201F4908701F490870AD
:102A50001F49087010BD0000580B002058000020CE
:102A60005C0000208C13002060000020B8140020BF
:102A70006400002068000020EC1C00206C00002096
:102A8000181E002070000020740000204C2600203A
:102A9000780000202F7379732F696A617255534251
:102AA0003430454C2F44485431312F7468696E6777
:102AB0002F736572766963652F70726F70657274BB
:102AC000792F7365740000009B0000209A0000209D
:102AD0009800002070B501207A4908600A207A49E0
:102AE00008607A480068001D794909680844801C1C
:102AF000784909680844784908607348006809689B
:102B0000441810207549087000BF2046E11704EBF7
:102B10005161C911A4EBC115E11704EB5161CC114E
:102B2000002C01DD45F080056C48664A126885542A
:102B300064480068401C63490860002CE5DC002103
:102B4000664A60480068115404215E480068401CD1
:102B500011544D215B480068801C11545121594883
:102B60000068C01C1154542156480068001D1154BF
:102B700054480068401D1154042152480068801DCB
:102B80001154C2214F480068C01D115400214D4806
:102B900000680830115464214A4800680930115413
:102BA0004A490868C11700EB1161C1F307224B4B7A
:102BB000444909680A315A5444490868C11700EB6E
:102BC00011610912A0EB0121CAB23E4909680B311B
:102BD0005A541A463B4909680C3150183B490A6857
:102BE0003F49FDF718FD3A490868C11700EB11612C
:102BF000C1F30722334909680C31344B1B6819446F
:102C0000364B5A5432490868C11700EB116109125A
:102C1000A0EB0121CAB22B4909680D312B4B1B686F
:102C200019442E4B5A54274909680E31274A126815
:102C300011441A46881826490A682A49FDF7EBFC10
:102C400024490868C11700EB1161C1F307221D492F
:102C500009680E311D4B1B6819441D4B1B68194434
:102C60001E4B5A541B490868C11700EB1161091229
:102C7000A0EB0121CAB2134909680F31134B1B683D
:102C80001944134B1B681944144B5A540D490968D5
:102C900010310E4A126811440D4A126811441A4646
:102CA00088180C490A681049FDF7B5FC054800680A
:102CB000054A12681044084A12688118074801F052
:102CC000E3FB70BD8C000020900000207C00002001
:102CD000800000208400002094000020782900203B
:102CE00078270020F8270020782800202DE9F04FD1
:102CF000D1B0804698F8011098F8000001EB002050
:102D0000509008F10207002081460546064683469A
:102D100001244FF0010A00BF0BF1010B00BF28197D
:102D200017F8009009F07F0000FB0A664FEACA1A04
:102D3000641C09F080000028F1D1301905443119D4
:102D40005098401A50900124A2460026509800281E
:102D5000E2D1594620A004F067FC00200546064653
:102D600000BF00BF4C9030E000BF281917F800905A
:102D700009F07F0000FB0A664FEACA1A641C09F0DA
:102D800080000028F1D1601C2844395C6019385C4F
:102D900001EB0020801C4F904F98301A4E9029195B
:102DA0004F9808444D904D98391801A84E9AFDF758
:102DB00032FC01A84E99FFF711FA3019054401249D
:102DC000A24600264C98401C4C904C985845CBDBB2
:102DD00051B0BDE8F08F0000B1BEB4CEBDD3CAD5AE
:102DE000C1CB2564B8F6CDC6CBCDCAFDBEDD0D0A7C
:102DF0000000000010B5C020044908700020487091
:102E00000221024801F040FB10BD0000782900209B
:102E10002DE9F047054688461646012033490860EB
:102E20002846FDF7CDFB801C31490860314806601B
:102E3000084600682F490968441830202E49087058
:102E400000BF2046E11704EB5161C911A4EBC11783
:102E5000E11704EB5161CC11002C01DD47F0800734
:102E60002548224A1268875420480068401C1F49A0
:102E70000860002CE5DC2846FDF7A2FBC0F3072123
:102E80001D4A1A48006811542846FDF799FBC1B243
:102E9000194A16480068401C11542846FDF790FB5B
:102EA0008146154A11490968891C50184A46294625
:102EB000FDF7B1FB2846FDF783FB0C490968891C27
:102EC00008440D4900EB0109324641464846FDF7EA
:102ED000A2FB06480068064A12681044054A1268B8
:102EE0008118054801F0D0FABDE8F0878C00002079
:102EF00090000020940000207829002070B504463E
:102F00000D4602201F4908601F4908602046FDF752
:102F100057FBC01C1D49086082201D4908701A48D3
:102F200000781A49097808441949487000208870C7
:102F30000120C8702046FDF743FB000A14490871C0
:102F40002046FDF73DFB124948712046FDF738FB4E
:102F50000646324621460E48801DFDF75CFB2046A2
:102F6000FDF72EFB801D0A490D5406480068064AED
:102F700012681044054A12688118054801F084FA65
:102F800070BD00008C000020900000209400002004
:102F9000782900207047704770B5002100230F2268
:102FA000C47804B3154C246804F4E064C4F5E06408
:102FB000210AC1F10403CA40447804FA03F1847879
:102FC0001440214309010E4C0678A155047804F001
:102FD0001F050124AC4005786D11AD0005F1E02519
:102FE000C5F8004109E0047804F01F050124AC4055
:102FF000044D0678761145F8264070BD0CED00E0D2
:1030000000E400E080E100E002490143024A11606F
:10301000704700000000FA050CED00E070B50024D8
:1030200019E004F1B001C8B2002100F02DF900212F
:10303000084600F029F90021102000F025F90025AC
:1030400005E00121002000F01FF9681CC5B2802DA9
:10305000F7DB601CC4B2082CE3DB70BD08B50121AE
:10306000182000F04FFB4FF44070ADF80000102026
:103070008DF8030003208DF8020069464A48FFF7E7
:10308000BCFA4FF440714848FFF766FB4FF460709C
:10309000ADF8000010208DF8030003208DF8020029
:1030A00069464248FFF7A9FA4FF460713F48FFF7BD
:1030B00053FB0021AE2000F0E7F80021084600F0A5
:1030C000E3F80021102000F0DFF80021402000F09C
:1030D000DBF80021812000F0D7F80021CF2000F09C
:1030E000D3F80021A12000F0CFF80021C82000F083
:1030F000CBF80021A62000F0C7F80021A82000F09E
:10310000C3F800213F2000F0BFF80021D32000F0D9
:10311000BBF80021084600F0B7F80021D52000F0E8
:10312000B3F80021802000F0AFF80021D92000F092
:10313000ABF80021F12000F0A7F80021DA2000F020
:10314000A3F80021122000F09FF80021DB2000F0FE
:103150009BF80021402000F097F80021202000F08B
:1031600093F80021022000F08FF800218D2000F05C
:103170008BF80021142000F087F80021A42000F033
:1031800083F80021A62000F07FF80021AF2000F096
:103190007BF80021AF2000F077F8FFF73FFF002118
:1031A000084600F005F808BD000C01400010014081
:1031B00070B504460D4605F1B001C8B2002100F01B
:1031C00063F8102141EA1410002100F05DF804F0CA
:1031D0000F0141F00100002100F056F870BD000021
:1031E0002DE9F04107460E46904600250024A8F13F
:1031F0002000C5B27F2F02DD0027B01CC6B23146C9
:103200003846FFF7D5FF002408E004EB05110F4A0C
:10321000505C012100F038F8601CC4B2082CF4DBCB
:10322000701CC1B23846FFF7C3FF002409E004EB6D
:1032300005110831054A505C012100F025F8601C99
:10324000C4B2082CF3DBBDE8F08100004AA70008F7
:103250002DE9F04104460F46154600260EE0AA5D12
:1032600039462046FFF7BCFF04F10800C4B2782CB1
:1032700002DD0024B81CC7B2701CC6B2A85D0028CD
:10328000EDD1BDE8F081000070B504460E462EB1C8
:103290004FF400711C48FFF75FFA04E04FF400712F
:1032A0001948FFF73EFA4FF480711748FFF739FAD3
:1032B00000251BE04FF480711448FFF732FA04F048
:1032C000800028B14FF400711048FFF745FA04E080
:1032D0004FF400710D48FFF724FA4FF480710B484A
:1032E000FFF73AFA6006040E681CC5B2082DE1DB50
:1032F0004FF480710448FFF72FFA4FF40071024831
:10330000FFF72AFA70BD0000000C014000100140D8
:10331000FCB502462F2300BF00208DF805008DF874
:1033200004008DF803008DF8020001208DF80100E3
:1033300007208DF800002F2300250521002409E037
:10334000581EC3B2072C02DA601CC4B202E000248B
:10335000481EC1B2505C80272741384008B9002977
:10336000EEDCA3F10800C5B21EE0052118E0481EFE
:103370001DF8000000F0800018B1002901DD0126D1
:1033800000E000261DF801004006000E0DF80100C7
:103390001DF801003044C0B20DF80100481EC1B252
:1033A000FF29E4DB681EC5B2002DDED1002106E056
:1033B000505C1DF8017078405054481CC1B205297A
:1033C000F6DD082BA8DC1078FCBD10B5142000F049
:1033D00023FA044604F0030018B90321142000F076
:1033E000C7FC10BDF0B587B0054600270821084688
:1033F000FEF72AFF00210D2002F026F980210E2081
:10340000FEF722FF93208DF8080020208DF8090098
:1034100001A802AB022202A900900C2000F01AF8C9
:10342000064686B9002407E002A8005D285502A8D8
:10343000005D4740601CC4B2042CF5DB02A8005DAF
:10344000B84200D0022680210E2000F091FC3046C8
:1034500007B0F0BD2DE9FE4F0646884691469A46D4
:10346000DDF830B0022002900020019000900C2E78
:1034700006D00E2E09D1122001901020009005E0F8
:10348000772001903020009000E000BF00BF01983D
:1034900040F08001022002F0D7F880210420FEF7DE
:1034A000D3FE0021012002F0CFF880210A2000F095
:1034B0005FFC002505E018F80510092002F0C4F8AB
:1034C0006D1C4D45F7D33146012002F0BDF80C2E9E
:1034D00003D180210D2000F04BFC4FF47A7500BF22
:1034E000042000F099F904466D1E35B104F0010086
:1034F00018B9009820400028F2D080210D20FEF756
:10350000A3FE95B3062000F087F900F01B0068BB0E
:10351000002002900198204000F0010008B1012035
:1035200002900C2E24D10A2000F076F904460C20DB
:1035300000F072F900F007072FB1601E07EBC00022
:10354000CBF8000002E0E000CBF8000004B9012451
:10355000122C00DD1224002505E0092000F05CF9A2
:103560000AF805006D1CA542F7D301E00220029085
:1035700080210C2000F0FCFB0021012002F064F807
:103580000298BDE8FE8F70B588B005460C4608214C
:103590000846FEF759FE07210D2002F055F80321D9
:1035A000142000F0E5FB8DF80C5002A803AB0122BB
:1035B00003A900900C20FFF74DFF06464EB9029874
:1035C000102806D19DF80C0020709DF80D00607049
:1035D00000E00226304608B070BD000010B50121A1
:1035E0001D48FFF7B9F8012002F026FE01211A4814
:1035F000FFF797F8012002F01FFE01211648FFF7A0
:10360000ABF8012002F018FE0F21012002F01CF897
:1036100000BF012000F000F900F010000028F8D1F0
:10362000012002F009FE3D21112002F00DF81E21BB
:103630002D2002F009F800212C2002F005F88D2140
:103640002A2002F001F83E212B2001F0FDFF40214D
:10365000152001F0F9FF10BD000C0140704700007B
:1036600010B500F057FA01210648FFF775F8102150
:103670000548FFF771F8FFF7B1FF4120FFF70AF99E
:1036800010BD0000000C0140000801400146002070
:10369000034A506820F440400843506070470000DF
:1036A0000010024029B1064A52690243044B5A6194
:1036B00004E0034A52698243014B5A61704700009B
:1036C0000010024029B1064AD2690243044BDA6174
:1036D00004E0034AD2698243014BDA61704700007B
:1036E0000010024029B1064A12690243044B1A61D4
:1036F00004E0034A12698243014B1A6170470000DB
:103700000010024029B1064A92690243044B9A61B3
:1037100004E0034A92698243014B9A6170470000BA
:103720000010024029B1064AD2680243044BDA6015
:1037300004E0034AD2688243014BDA60704700001C
:103740000010024030B500210022002400232D4D3E
:103750006D6805F00C0121B1042905D0082923D199
:1037600005E0294D056022E0274D05601FE0254D4D
:103770006D6805F47012234D6D6805F480340225E0
:1037800005EB92421CB9214D554305600BE01D4DE0
:103790006D6805F400351DB11C4D5543056002E010
:1037A000194D5543056002E0174D056000BF00BF8D
:1037B000144D6D6805F0F0010909154D6B5C056845
:1037C000DD4045600F4D6D6805F4E061090A104D5C
:1037D0006B5C4568DD4085600A4D6D6805F460519D
:1037E000C90A0B4D6B5C4568DD40C560054D6D68D1
:1037F00005F44041890B074D6B5CC568B5FBF3F5DB
:10380000056130BD0010024000127A0000093D0041
:10381000EC010020FC01002070B504467E2000EA87
:10382000440040F0800510210748FEF77AFF284643
:1038300000F036FA00F00EFA064610210248FEF7B4
:103840008BFF304670BD000000080140002107E0FA
:10385000002201E0531C9AB28242FBDB4B1C99B25E
:103860000429F5DB7047000008B501210420FFF7AB
:1038700049FF4FF4C050ADF8000014208DF803004C
:1038800003208DF8020069460548FEF7B6FE4FF4A6
:1038900000600349103108604000086008BD000066
:1038A000000801402DE9FC4F04460D464FF0000989
:1038B000CA46CB466006040E00BF00BF00F00AF9FE
:1038C000ABF1010000F0FF0BBBF1000F00D136E0BF
:1038D00000F0DEF8204600F0C3F800B1EEE728461D
:1038E00000F0BEF800B1E9E700F0D2F8611CC8B200
:1038F00000F0B6F800B1E1E7002000F075F881466D
:10390000002000F071F88246012000F06DF880463A
:1039100000F0E0F88DF805408DF80450601CC0B24E
:103920008DF803008DF802908DF801A000208DF82D
:1039300000006846FFF7ECFC06464645BDD100BFD7
:1039400049EA0A273846BDE8FC8F00002DE9FC5FF4
:1039500007210020FFF7A6FF009005F042FF8046F8
:103960000B4A0C4B05F08CFF06464FF066320A4BB3
:1039700006F0ACF904464FF06632084B05F006FD40
:10398000824605F0D1FC01900198BDE8FC9F000043
:103990007B14AE47E17A943F6612714066662A4016
:1039A00010B54FF480500F4908600220FFF74EFF1A
:1039B0004FF400600B4908600520FFF747FF0948F6
:1039C0000838006800F4805008B1012400E00024A9
:1039D0004FF400600349091D08600320FFF736FF1C
:1039E000204610BD1008014070B5064608250DE0C0
:1039F000FFF7D6FF20B16006040E44F0010403E097
:103A00006006040E04F0FE04681EC5B2002DEFD15E
:103A1000304600F003F8204670BD000010B50446A3
:103A200024B94FF480500D49086004E04FF48050F1
:103A30000A49091F08600220FFF708FF4FF40060E1
:103A40000649091F08600620FFF700FF4FF40060D9
:103A5000024908600320FFF7F9FE10BD1408014079
:103A6000F0B5044608250CE004F0800008B10126FA
:103A700000E000263046FFF7D1FF6006040E681E06
:103A8000C5B2002DF0D1FFF78BFF07463846F0BDD9
:103A900000B54FF480500E4908600520FFF7D6FEB0
:103AA0004FF400600A4908600520FFF7CFFE4FF48D
:103AB00080500749091D08600520FFF7C7FE4FF435
:103AC00000600349091D08600520FFF7BFFE00BD27
:103AD0001008014000B54FF400600D490860052052
:103AE000FFF7B4FE4FF48050094908600520FFF746
:103AF000ADFE4FF400600649091F08600520FFF77E
:103B0000A5FE4FF480500249091F086000BD000067
:103B10001408014000B587B001210C20FFF7F2FD29
:103B200001210803FFF7CEFD1020ADF818008DF835
:103B30001B0003208DF81A0006A92E48FEF75DFD34
:103B40002020ADF8180010208DF81B0003208DF800
:103B50001A0006A92748FEF750FD4020ADF81800CE
:103B600004208DF81B0003208DF81A0006A92148B7
:103B7000FEF743FD8020ADF8180010208DF81B00E3
:103B800003208DF81A0006A91A48FEF736FD012019
:103B9000ADF8180010208DF81B0003208DF81A00D6
:103BA00006A91548FEF729FD0020ADF804004FF4E2
:103BB0008270ADF806000020ADF808000220ADF8D4
:103BC0000A000120ADF80C004002ADF80E003820CC
:103BD000ADF810000020ADF812000720ADF8140079
:103BE00001A9064800F018F80121044800F008F87F
:103BF00007B000BD00080140000C0140003001404A
:103C000021B1028842F04002028004E002884FF6AF
:103C1000BF731A400280704710B50022028802F478
:103C200041520B884C8823438C882343CC88234300
:103C30000C8923434C8923438C892343CC89234318
:103C40001A430280838B4FF2FF74234083830B8AD5
:103C5000038210BD70B500251CE06006040E202113
:103C60000E48FEF75EFD142002F0E6FA40210B48F4
:103C7000FEF74EFD012801D144F00104142002F0AA
:103C8000DBFA20210548FEF767FD142002F0D4FA84
:103C9000681CC5B2082DE0DB204670BD000801405D
:103CA00070B50446002520E004F0800020B180219A
:103CB0000F48FEF751FD03E080210D48FEF731FD6E
:103CC000142002F0B9FA20210948FEF72AFD142039
:103CD00002F0B2FA20210648FEF73EFD142002F061
:103CE000ABFA6006040E681CC5B2082DDCDB70BDA3
:103CF0000008014070472DE9F0418EB080460E4625
:103D0000002700243046FCF75BFCC5B2FD208DF88F
:103D1000040000208DF80500E81CC0B28DF80600F4
:103D200001208DF8070040EA0810C0B28DF80800A5
:103D300000BF03E001A8005D4740641C052CF9D3D7
:103D4000002402E0305D4740641CAC42FAD32A46AE
:103D500031460DF10900FCF75EFC681D01A90F5406
:103D6000A81DC1B201A800F021FC0EB0BDE8F08191
:103D700070B505460C462846FFF74EFD064646EA56
:103D80000401284601F060FC70BD10B500F002F897
:103D900010BD00000CB50020019000903348006871
:103DA00040F480303149086000BF3048006800F4BA
:103DB000003000900198401C0190009818B90198BB
:103DC000B0F5A06FF1D12948006800F4003010B1BF
:103DD0000120009001E0002000900098012843D1CC
:103DE0002348006840F01000214908600846006838
:103DF00020F0030008600846006840F002000860F8
:103E00001A484068194948600846406848600846B2
:103E1000406840F4806048600846406820F47C10A8
:103E200048600846406840F4E8104860084600686A
:103E300040F08070086000BF0C48006800F000701F
:103E40000028F9D00948406820F00300074948607D
:103E50000846406840F00200486000BF03484068E0
:103E600000F00C000828F9D10CBD00000010024041
:103E7000002002403EB50146002046E00A5CD31710
:103E800002EB13731B110DF810301DF81020092AD6
:103E900006DD1DF810203732D2B20DF8102005E0F3
:103EA0001DF810203032D2B20DF810200A5CD31762
:103EB00002EB13731B11A2EB0313DBB2012404EB1F
:103EC00040040DF80430012202EB40021DF80220EC
:103ED000092A0CDD012202EB40021DF802203732D4
:103EE000D2B2012303EB40030DF803200BE00122C3
:103EF00002EB40021DF802203032D2B2012303EB64
:103F000040030DF80320421CD0B20428B6DB002287
:103F10008DF808203EBD042808D14FF0E021096942
:103F200041F004014FF0E022116107E04FF0E02181
:103F3000096921F004014FF0E0221161704700008F
:103F400002480068401C01490860704704020020D4
:103F500010B51348006840F0010011490860084698
:103F60004068104908400E494860084600680E49FC
:103F700008400B4908600846006820F4802008606B
:103F80000846406820F4FE0048604FF41F00886037
:103F9000FFF7FBFE4FF000600449086010BD000011
:103FA000001002400000FFF8FFFFF6FE08ED00E001
:103FB0001FB54FF4A060FFF727F801210846FFF76F
:103FC00081FB4FF0804000F0FFF840F2CF70ADF879
:103FD000080048F69F40ADF804000020ADF8060048
:103FE000ADF80A0001A94FF0804000F0FBF9012173
:103FF000880700F0D9F801221146900700F0E9F98E
:104000000121880700F0D3F81C208DF80000022061
:104010008DF8010001208DF802008DF8030068463C
:10402000FEF7BAFF1FBD000010B50121880700F0A0
:10403000BFF940B104480068401C034908600121F1
:10404000880700F0B1F810BD440000201FB54FF400
:10405000A060FEF7D9FF01210220FFF733FB1848CB
:1040600000F0B2F844F61F60ADF8080041F61F40BA
:10407000ADF804000020ADF80600ADF80A0001A973
:104080000F4800F0AFF901210D4800F08DF8012232
:1040900011460B4800F09DF90121094800F087F80E
:1040A0001D208DF8000001208DF8010000208DF802
:1040B000020001208DF803006846FEF76DFF1FBD6A
:1040C000000400401FB54FF4A060FEF79DFF0121E2
:1040D0000220FFF7F7FA184800F076F84EF65F2056
:1040E000ADF8080048F69F40ADF804000020ADF898
:1040F0000600ADF80A0001A90F4800F073F901218C
:104100000D4800F051F8012211460B4800F061F90A
:104110000121094800F04BF81D208DF80000022015
:104120008DF8010001208DF802008DF8030068462B
:10413000FEF732FF1FBD00000004004010B5012152
:10414000164800F035F938B315480078062819D21A
:10415000DFE800F003060B0C0D10FEF74BFE11E03C
:10416000FFF774FFFEF746FE0CE000BF00BFFEF74E
:1041700041FE07E000200B4908700021074800F0CD
:1041800016F800BF00BF06480078401C04490870BC
:104190000121024800F008F810BD000000040040B2
:1041A0009800002099000020CA430282704721B184
:1041B000028842F00102028004E002884FF6FE739A
:1041C0001A4002807047000010B5044668488442D7
:1041D00008D10121C014FFF7A5FA0021E014FFF770
:1041E000A1FAC4E0B4F1804F08D101210846FFF7DD
:1041F00079FA00210120FFF775FAB8E05D488442A2
:1042000008D101210220FFF76DFA00210220FFF7FB
:1042100069FAACE05848844208D101210420FFF734
:1042200061FA00210420FFF75DFAA0E053488442C0
:1042300008D101210820FFF755FA00210820FFF7D7
:1042400051FA94E04E48844208D101211020FFF732
:1042500049FA00211020FFF745FA88E049488442D6
:1042600008D101212020FFF73DFA00212020FFF78F
:1042700039FA7CE04448844208D101214014FFF718
:1042800051FA00216014FFF74DFA70E03F48844274
:1042900009D10121C804FFF745FA00214FF400209D
:1042A000FFF740FA63E03A48844209D1012108054A
:1042B000FFF738FA00214FF48010FFF733FA56E089
:1042C0003448844209D101214805FFF72BFA002127
:1042D0004FF40010FFF726FA49E02F48844208D136
:1042E00001214020FFF7FEF900214020FFF7FAF9F5
:1042F0003DE02A48844208D101218020FFF7F2F9ED
:1043000000218020FFF7EEF931E02548844208D1F2
:1043100001218015FFF7E6F90021A015FFF7E2F96A
:1043200025E02048844209D101210804FFF7FAF969
:1043300000214FF48030FFF7F5F918E01A48844265
:1043400009D101214804FFF7EDF900214FF40030B5
:10435000FFF7E8F90BE01548844208D101218804F1
:10436000FFF7E0F900214FF48020FFF7DBF910BDE3
:10437000002C01400004004000080040000C0040F8
:10438000001000400014004000340140004C014087
:10439000005001400054014000180040001C004043
:1043A000002000400040014000440140004801401E
:1043B00030B50246002000230024158A05EA0103D7
:1043C000958905EA010413B10CB1012000E0002039
:1043D00030BD1AB183890B43838102E083898B430B
:1043E00083817047002202881D4B98420ED01D4BDE
:1043F00098420BD0B0F1804F08D01B4B984205D0AB
:104400001A4B984202D01A4B984204D14FF68F7340
:104410001A404B881A43174B984207D0164B9842C4
:1044200004D04FF6FF431A40CB881A4302808B8892
:1044300083850B8803850A4B98420BD0094B984221
:1044400008D00E4B984205D00D4B984202D00D4B30
:10445000984201D10B7A03860123838270470000C2
:10446000002C0140003401400004004000080040DE
:10447000000C0040001000400014004000400140CB
:10448000004401400048014070B505460C462246F4
:10449000294613480068801CFCF7BDF82046E11748
:1044A00004EB1161090A0E4A12681170E11704EB5E
:1044B00011610912A4EB0121094A126851700848E0
:1044C000006800F5967006490860084600680549CE
:1044D0000968884202D104480149086070BD0000A3
:1044E000640000206C000020B814002070B5054660
:1044F0000E4600240CE000BF4021074800F060FB9E
:104500000028F9D0295D044800F027FC601CC4B2E3
:10451000B442F0DB70BD00000048004010B540F22E
:1045200025511D4800F059FB002834D01A4800F0EE
:104530000FFCC4B22021184800F0D6FA4D2C06D149
:1045400000201649087016480978445407E0502C9A
:1045500005D1002013490870134809784454302CC1
:1045600009DB392C07DC0D480078401CC0B20B4930
:1045700008700B490C54612C01DB7A2C03DD302CC4
:1045800009DB392C07DC07480078401CC0B205491C
:10459000087005490C5410BD004C00404800002034
:1045A0003C000020490000203F02002070B5054675
:1045B0000E4600240CE000BF4021074800F000FB3D
:1045C0000028F9D0295D044800F0C7FB601CC4B284
:1045D000B442F0DB70BD0000004C004010B540F26A
:1045E0002551324800F0F9FA90B13148007878B995
:1045F0002E48001D008858B12C48001D00882D4908
:104600002D4A126888542C480068401C2A490860CA
:1046100040F22441254800F0E0FA002844D0244824
:104620000078012840D121480088234908601F48AC
:10463000001D0088086000212048FDF7FBFE1F4890
:10464000FDF734FFC0F580601B4908600846194932
:1046500002681B480068801CFBF7DDFF16480088D5
:10466000000A174909680870134800781449096856
:1046700048701348006800F59670114908600846B4
:10468000006810490968884202D10F480C49086047
:104690000020094908604FF4806008496C390867B8
:1046A00001210648FDF7C6FE10BD00000044004091
:1046B0009900002058030020500000206C000240A8
:1046C0005800002060000020580B002010B540F278
:1046D00025519B4800F081FA00287DD0984800F0D1
:1046E00037FBC4B2974898490978445496490978E9
:1046F000405C0A2803D100209349087004E09248E6
:104700000078401C9049087020218D4800F0ECF999
:104710008C480078502802D101208C4908708948C3
:104720000078702802D100208849087085480078F8
:10473000592802D1012086490870824800787928DA
:1047400002D10020824908707E480078462802D1B4
:104750000120804908707B480078662802D100203B
:104760007C490870774800784E2802D101207A49A8
:104770000870744800786E2802D1002076490870CD
:1047800070480078442802D10120744908706D48AF
:104790000078642802D100207049087069480078C8
:1047A000382810D167484078302802D100206C4961
:1047B000087064484078312802D1012068490870A7
:1047C0000020604948705F480078362822D15D4853
:1047D000407830280CD100E0B0E062480078401CFE
:1047E0006049087008460078632801DD632008707E
:1047F0005448407831280AD15A480078401E594917
:10480000087008460078012801DA012008700020AD
:104810004C4948704B480078342820D149484078AA
:1048200031280AD150480078401C4F49087008468A
:104830000078632801DD6320087042484078302802
:104840000AD149480078401E474908700846007858
:10485000012801DA0120087000203A4948703948DF
:104860000078372820D13748407830280AD13F488F
:104870000078401C3D49087008460078632801DD37
:10488000632008702F48407831280AD137480078D3
:10489000401E3649087008460078012801DA0120D8
:1048A000087000202749487026480078352820D114
:1048B0002448407831280AD12D480078401C2C49E2
:1048C000087008460078632801DD632008701D48E1
:1048D000407830280AD126480078401E24490870C4
:1048E00008460078012801DA0120087000201549E7
:1048F000487014480078392820D112484078302870
:104900000AD11C480078401C1A49087008460078F3
:10491000632801DD632008700A48407831280AD1F5
:1049200014480078401E1349087008460078012892
:1049300001DA0120087000200249487010BD000013
:104940000048004019000020270000203700002008
:1049500038000020390000203A0000203B000020F1
:10496000360000202C0000202B0000202E0000200C
:104970002D0000202F00002010B586B00446012134
:104980008804FEF79FFE01210820FEF7BBFE2648A3
:1049900000F0C8F84FF48060ADF8140018208DF8CE
:1049A000170003208DF8160005A92048FDF725FE05
:1049B0004FF40060ADF8140004208DF8170005A92D
:1049C0001A48FDF71AFE01940020ADF80800ADF872
:1049D0000A00ADF80C00ADF810000C20ADF80E0088
:1049E00001A9114800F048F927208DF800000120A6
:1049F0008DF8010003208DF8020001208DF80300DE
:104A00006846FEF7C9FA012240F22551064800F037
:104A10000EF90121044800F070F84021024800F02E
:104A200063F806B010BD000000480040000C0140D3
:104A300010B586B004460121C804FEF743FE0121EB
:104A40001020FEF75FFE264800F06CF84FF48060FF
:104A5000ADF8140018208DF8170003208DF816000B
:104A600005A92048FDF7C9FD4FF40060ADF814001A
:104A700004208DF8170005A91A48FDF7BEFD019422
:104A80000020ADF80800ADF80A00ADF80C00ADF854
:104A900010000C20ADF80E0001A9114800F0ECF850
:104AA00034208DF8000002208DF8010003208DF8DD
:104AB000020001208DF803006846FEF76DFA01221E
:104AC00040F22551064800F0B2F80121044800F0F8
:104AD00014F84021024800F007F806B010BD0000AD
:104AE000004C00400010014001F40072B2F5007F5C
:104AF00000D100BFCA430280704721B1828942F4CD
:104B00000052828104E082894DF6FF731A4082814F
:104B100070471AB1838A0B43838202E0838A8B43F6
:104B20008382704710B504462048844209D1012190
:104B30008803FEF7F7FD00214FF48040FEF7F2FDF9
:104B400032E01B48844209D101214804FEF7CAFD26
:104B500000214FF40030FEF7C5FD25E015488442E2
:104B600009D101218804FEF7BDFD00214FF480200A
:104B7000FEF7B8FD18E01048844209D10121C804AD
:104B8000FEF7B0FD00214FF40020FEF7ABFD0BE077
:104B90000A48844208D101210805FEF7A3FD00213F
:104BA0004FF48010FEF79EFD10BD0000003801405C
:104BB0000044004000480040004C004000500040CD
:104BC00002460020B1F5007F00D100BF13880B40E2
:104BD0000BB1012000E00020704770B502460024B0
:104BE00000230025002040F66A16B14200D100BF24
:104BF000C1F3421501F01F03012606FA03F3012D4C
:104C000002D19689334006E0022D02D1168A334044
:104C100001E0968A33400C12012606FA04F4168845
:104C2000344013B10CB1012000E0002070BDF0B59C
:104C30000346002400260025002040F66A17B942EA
:104C400000D100BF1846C1F3421401F01F0601272E
:104C500007FA06F5012C01D10C3004E0022C01D139
:104C6000103000E014301AB107682F43076002E0EB
:104C70000768AF430760F0BD2DE9F04786B00546F1
:104C80000E460024A24600BFA1460027B08900B10D
:104C900000BF2F462C8A4CF6FF700440F088044376
:104CA0002C82AC894EF6F3100440B0883189084359
:104CB000718908430443AC81AC8A4FF6FF4004403D
:104CC000B0890443AC8201A8FEF73CFD1F4887422F
:104CD00002D1DDF810A001E0DDF80CA0A88900F4F5
:104CE000004040B10AEBCA0000EB0A1031684900ED
:104CF000B0FBF1F807E00AEBCA0000EB0A103168DC
:104D00008900B0FBF1F86420B8FBF0F00401200941
:104D1000642101FB1089A88900F4004040B13220D1
:104D200000EBC900B0FBF1F000F00700044308E01D
:104D3000322000EB09106421B0FBF1F000F00F000D
:104D400004432C8106B0BDE8F08700000038014024
:104D500001468888C0F308007047C1F308028280CA
:104D60007047704710B586B0044601218803FEF7EE
:104D7000C9FC01210420FEF7C5FC4FF40070ADF81A
:104D8000140003208DF8160018208DF8170005A9CF
:104D90001248FDF732FC4FF48060ADF81400042097
:104DA0008DF8170005A90D48FDF727FC0194002098
:104DB000ADF80800ADF80A00ADF80C00ADF8100031
:104DC0000820ADF80E0001A90548FFF755FF0121A5
:104DD0000348FFF792FE06B010BD00000008014036
:104DE0000038014000B58DB001210846FEF75AFC9D
:104DF0002C4802902C480390002004904FF48060CF
:104E000005900020069080200790002008900990CF
:104E10000A904FF400500B9000200C9002A92348F8
:104E2000FDF767FB01212148FDF704FB1D480290B7
:104E30001F480068801C0390102004904FF4967067
:104E4000059000200690802007900020089009908F
:104E50000A904FF480500B9000200C9002A9134848
:104E60001430FDF746FB002110481430FDF7E2FA3C
:104E70004FF00070FDF7D0FA012202210B481430E8
:104E8000FDF72EFB11208DF8040000208DF80500A1
:104E90008DF8060001208DF8070001A8FEF77CF8C8
:104EA0000DB000BD04440040580300206C000240D7
:104EB0006800002010B586B004464FF4A060FEF7ED
:104EC000A3F82E48FFF72EFE01214804FEF7FAFB57
:104ED00001210420FEF716FC2848FFF723FE0420DA
:104EE000ADF8140003208DF8160018208DF8170077
:104EF00005A92348FDF781FB0820ADF81400042024
:104F00008DF8170005A91E48FDF777FB01940020D6
:104F1000ADF80800ADF80A00ADF80C00ADF81000CF
:104F20000C20ADF80E0001A91448FFF7A5FE0122E0
:104F300040F224411148FFF77AFE26208DF8000048
:104F400000208DF801008DF8020001208DF803008B
:104F50006846FEF721F8012240210848FFF7D9FDF5
:104F6000012280210548FFF7D4FDFFF73BFF012117
:104F70000248FFF7C2FD06B010BD0000004400402B
:104F80000008014010B586B004464FF4A060FEF75B
:104F90003BF82A48FFF7C6FD01214804FEF792FBC3
:104FA00001210420FEF7AEFB2448FFF7BBFD0420DF
:104FB000ADF8140003208DF8160018208DF81700A6
:104FC00005A91F48FDF719FB0820ADF814000420BF
:104FD0008DF8170005A91A48FDF70FFB0194002072
:104FE000ADF80800ADF80A00ADF80C00ADF81000FF
:104FF0000C20ADF80E0001A91048FFF73DFE20215E
:105000000E48FFF771FD012240F225510B48FFF7D2
:105010000EFE26208DF8000000208DF801008DF88E
:10502000020001208DF803006846FDF7B5FF01215D
:105030000248FFF762FD06B010BD000000440040CA
:105040000008014010B539A002F0EEFA322000F05D
:105050006FFA20B139A002F0E7FA012010BD3DA09F
:1050600002F0E2FA3EA002F0DFFA322141A000F0A5
:10507000B1FA20B142A002F0D7FA0220EEE747A031
:1050800002F0D2FA4A48007800281ED149A002F066
:10509000CBFA32214CA000F09DFA20B14EA002F0D4
:1050A000C3FA0320DAE754A002F0BEFA57A002F0D8
:1050B000BBFA0A2000F0E8F920B159A002F0B4FAD6
:1050C0000420CBE75DA002F0AFFA61A002F0ACFAD9
:1050D000322163A000F07EFA20B165A002F0A4FAAC
:1050E0000820BBE769A002F09FFA6CA002F09CFACE
:1050F00032216FA000F06EFA20B170A002F094FA95
:105100000920ABE775A002F08FFA79A002F08CFAC3
:10511000642000F00FF920B17AA002F085FA0A208D
:105120009CE77FA002F080FA002097E7D7BCB1B8D7
:10513000B8B4CEBBC4A3BFE90D0A0000B8B4CEBB5F
:10514000CAA7B0DCA3ACD7BCB1B8D6D8C6F40D0A98
:1051500000000000B8B4CEBBB3C9B9A60D0A000068
:10516000D7BCB1B8C9E8D6C3535441C4A3CABD0D16
:105170000A00000041542B43574D4F44453D310038
:10518000C9E8D6C3535441C4A3CABDCAA7B0DCA35F
:10519000ACD7BCB1B8D6D8C6F40D0A00C9E8D6C39E
:1051A000535441C4A3CABDB3C9B9A60D0A00000037
:1051B00055000020D7BCB1B8C8A1CFFBD7D4B6AF3B
:1051C000C1ACBDD30D0A000041542B435741555487
:1051D0004F434F4E4E3D3000C8A1CFFBD7D4B6AFA2
:1051E000C1ACBDD3CAA7B0DCA3ACD7BCB1B8D6D8CC
:1051F000C6F40D0A00000000C8A1CFFBD7D4B6AF9B
:10520000C1ACBDD3B3C9B9A60D0A0000D7BCB1B8B3
:10521000C1ACBDD3C2B7D3C9C6F70D0A00000000A8
:10522000C1ACBDD3C2B7D3C9C6F7CAA7B0DCA3AC63
:10523000D7BCB1B8D6D8C6F40D0A0000C1ACBDD3F6
:10524000C2B7D3C9C6F7B3C9B9A60D0A000000009A
:10525000D7BCB1B8C9E8D6C3CDB8B4AB0D0A00000D
:1052600041542B4349504D4F44453D31000000000F
:10527000C9E8D6C3CDB8B4ABCAA7B0DCA3ACD7BC21
:10528000B1B8D6D8C6F40D0A00000000C9E8D6C3EC
:10529000CDB8B4ABB3C9B9A60D0A0000D7BCB1B83C
:1052A000B9D8B1D5B6E0C2B7C1ACBDD30D0A0000C4
:1052B00041542B4349504D55583D3000B9D8B1D5D4
:1052C000B6E0C2B7C1ACBDD3CAA7B0DCA3ACD7BCF3
:1052D000B1B8D6D8C6F40D0A00000000B9D8B1D5CF
:1052E000B6E0C2B7C1ACBDD3B3C9B9A60D0A0000C0
:1052F000D7BCB1B8C1ACBDD3B7FECEF1C6F70D0A6D
:1053000000000000C1ACBDD3B7FECEF1C6F7CAA7FE
:10531000B0DCA3ACD7BCB1B8D6D8C6F40D0A000037
:10532000C1ACBDD3B7FECEF1C6F7B3C9B9A60D0A5D
:105330000000000010B5044600202E4908604FF41C
:1053400080612D48FBF7DEF92C482D4902682DA01D
:1053500002F0B2F91AE0642000F04EFF30A12648B6
:10536000FBF71CF900B115E02FA12348FBF716F954
:1053700008B1012010BD2EA11F48FBF70FF908B19D
:105380000220F7E721462FA002F04EF9201EA4F1DB
:105390000104E0D100BF2CA002F046F9002C01DC92
:1053A0000320E7E729A002F03FF900201149086037
:1053B0004FF480611048FBF7A5F92CA002F07CF9AE
:1053C0000CE0642000F018FF2CA10B48FBF7E6F876
:1053D00000B107E021461BA002F026F9201EA4F12F
:1053E0000104EED100BF002C01DC0420C2E7002044
:1053F000C0E7000050000020580300208800002073
:10540000F828002041542B43495053544152543DF5
:1054100022544350222C222573222C25640D0A008D
:10542000434F4E4E45435400434C4F5345440000B8
:10543000414C524541445920434F4E4E45435445FB
:1054400044000000256420000D0A0000C1ACBDD35B
:10545000B7FECEF1C6F7B3C9B9A6A3ACD7BCB1B8F5
:10546000BDF8C8EBCDB8B4AB0D0A000041542B43D6
:10547000495053454E440D0A000000000D0A4F4BA1
:105480000D0A0D0A3E00000010B504460020144924
:1054900008604FF480611348FBF734F912A215A19C
:1054A00016A002F009F90DE04FF47A7000F0A4FEA6
:1054B00018A10C48FBF772F800B107E021461AA0CA
:1054C00002F0B2F8201EA4F10104EDD100BF17A034
:1054D00002F0AAF8002C01DC002010BD0020FCE73F
:1054E0005000002058030020313335313431706DC5
:1054F00000000000434D43430000000041542B4393
:10550000574A41503D222573222C222573220D0A31
:10551000000000005749464920474F542049500D8C
:105520000A0D0A4F4B000000256420000D0A000000
:1055300010B50446002210211348FDF70FF94FF46F
:10554000FA7000F059FE012210210F48FDF706F90C
:105550000CE0642000F050FE0CA10E48FBF71EF892
:1055600000B107E021460CA002F05EF8201EA4F175
:105570000104EED100BF09A002F056F8002C01DCB6
:10558000012010BD0020FCE700100140726561643D
:105590007900000058030020256420000D0A000057
:1055A00008B501211020FEF7ADF81020ADF800007D
:1055B00003208DF8020010208DF80300694604488E
:1055C000FDF71BF8012210210148FDF7C7F808BDBF
:1055D0000010014070B505460C46002013490860D4
:1055E0004FF480611248FBF78DF8294611A002F0B4
:1055F00063F80CE0642000F0FFFD10A10C48FAF7FE
:10560000CDFF00B107E021460DA002F00DF8201EED
:10561000A4F10104EED100BF0AA002F005F8002CAD
:1056200001DC012070BD0020FCE7000050000020DC
:105630005803002025730D0A000000004F4B0000A6
:10564000256420000D0A000070B504460D467E203A
:1056500000EA440610210748FDF763F83046FEF7DC
:105660001FFB2846FEF71CFB10210248FDF774F8CB
:1056700070BD000000080140490050EAC12018BF79
:1056800004204A0D18BF40F0010040F2FF72B2EB57
:10569000515F08BF40F00200012808BF0520704795
:1056A0002DE9F0414F1E00EBC7010446D1E900018E
:1056B00015461E4637F006020DD02A46334604F042
:1056C000DFF87F1E04EBC703D3E9002303F05EFE7F
:1056D00037F00602F1D1022F25D0042F13D0062F68
:1056E00018BFBDE8F0812A46334604F0C9F8D4E972
:1056F0000A2303F04BFE2A46334604F0C1F8D4E9EE
:10570000082303F043FE2A46334604F0B9F8D4E9EF
:10571000062303F03BFE2A46334604F0B1F8D4E9F1
:10572000042303F033FE2A46334604F0A9F8D4E9F3
:10573000022303F02BFE2A46334604F0A1F8D4E9F5
:105740000023BDE8F04103F021BE00000022134613
:105750001046014903F0D6BE0000F03F03F016BE2C
:10576000002213461046114603F0CCBE40F201322F
:1057700000204FF0E04104F08EBE0000024A0020FD
:10578000110704F088BE000001FDFFFF30380A2831
:1057900001D201207047002070470146002001E03F
:1057A000401C491C0A78002AFAD170472748007823
:1057B00027490978884205DC0120264908702649D6
:1057C000087010E02148007824490978884205DBF8
:1057D0000220204908702049087004E000201D497B
:1057E00008701D4908701E4800781E4909788842D3
:1057F00006DC01201C49087003201749087011E0DD
:105800001748007819490978884206DB02201649B2
:10581000087004201049087004E000201249087044
:105820000D4908701248007812490978884206DD4F
:1058300001201149087005200749087004E0002084
:105840000D490870044908707047000024000020CA
:105850002C00002030000020350000202B0000200C
:10586000250000202E000020320000202D00002006
:10587000260000202F0000203400002010B507482B
:105880000078012807D100F0E9F9FCF751FE01206A
:1058900000F0B2FC01E000F085F910BD9900002095
:1058A0002DE9F0470446002701260025A846A14619
:1058B0008A495220FDF767FE89490870084600783A
:1058C00030B9022008708748FDF78CFD84490870C4
:1058D00083480078002876D1834801F01DF9C5B2CD
:1058E00002207F4908707F48FEF7C4FA002720E0B5
:1058F0007C4800787C49895D884216D17948417896
:10590000794A701C105C81420FD176488178B01CB6
:10591000105C814209D17348C178F01C105C81424F
:1059200003D1701E114611F80080701DC6B2781C9C
:10593000C7B2052095FBF0F0B842D9DC6948007881
:105940000921B1EB201F06DA664800780A21C1EB75
:105950002010613003E0634800780011303004F813
:10596000010B6048007800F00F00092805DD5D4854
:10597000007800F00F00573004E05A48007800F03B
:105980000F00303004F8010B564840780921B1EB84
:10599000201F06DA534840780A21C1EB20106130FD
:1059A00003E0504840780011303004F8010B4D48B6
:1059B000407800F00F00092806DD4A48407800F0E2
:1059C0000F00573005E087E04648407800F00F00B0
:1059D000303004F8010B434880780921B1EB201FD7
:1059E00006DA404880780A21C1EB2010613003E0DC
:1059F0003C4880780011303004F8010B3948807839
:105A000000F00F00092805DD3648807800F00F000F
:105A1000573004E03348807800F00F00303004F84D
:105A2000010B3048C0780921B1EB201F06DA2D4860
:105A3000C0780A21C1EB2010613003E02948C0780A
:105A40000011303004F8010B2648C07800F00F0038
:105A5000092805DD2348C07800F00F00573004E026
:105A60002048C07800F00F00303004F8010B00200F
:105A700004F8010BB8F1000F2CD1052095FBF0F0D4
:105A8000401C20704C46052095FBF0F0401C164948
:105A9000485514480178144A681C1154114841783B
:105AA000A81C11540F488178E81C11540D48C17886
:105AB000281D11540021681D11540A48FEF7DAF917
:105AC000002701E0781CC7B20748C05D0028F9D163
:105AD000BDE8F0874046FBE7FF20F9E7E200002041
